{
  "contractName": "BaseERC20Token",
  "abi": [
    {
      "constant": true,
      "inputs": [],
      "name": "name",
      "outputs": [
        {
          "name": "",
          "type": "string"
        }
      ],
      "payable": false,
      "stateMutability": "view",
      "type": "function"
    },
    {
      "constant": false,
      "inputs": [
        {
          "name": "spender",
          "type": "address"
        },
        {
          "name": "value",
          "type": "uint256"
        }
      ],
      "name": "approve",
      "outputs": [
        {
          "name": "",
          "type": "bool"
        }
      ],
      "payable": false,
      "stateMutability": "nonpayable",
      "type": "function"
    },
    {
      "constant": true,
      "inputs": [],
      "name": "totalSupply",
      "outputs": [
        {
          "name": "",
          "type": "uint256"
        }
      ],
      "payable": false,
      "stateMutability": "view",
      "type": "function"
    },
    {
      "constant": false,
      "inputs": [],
      "name": "renounceOperator",
      "outputs": [],
      "payable": false,
      "stateMutability": "nonpayable",
      "type": "function"
    },
    {
      "constant": true,
      "inputs": [],
      "name": "decimals",
      "outputs": [
        {
          "name": "",
          "type": "uint8"
        }
      ],
      "payable": false,
      "stateMutability": "view",
      "type": "function"
    },
    {
      "constant": true,
      "inputs": [],
      "name": "cap",
      "outputs": [
        {
          "name": "",
          "type": "uint256"
        }
      ],
      "payable": false,
      "stateMutability": "view",
      "type": "function"
    },
    {
      "constant": false,
      "inputs": [
        {
          "name": "spender",
          "type": "address"
        },
        {
          "name": "addedValue",
          "type": "uint256"
        }
      ],
      "name": "increaseAllowance",
      "outputs": [
        {
          "name": "",
          "type": "bool"
        }
      ],
      "payable": false,
      "stateMutability": "nonpayable",
      "type": "function"
    },
    {
      "constant": false,
      "inputs": [
        {
          "name": "value",
          "type": "uint256"
        }
      ],
      "name": "burn",
      "outputs": [],
      "payable": false,
      "stateMutability": "nonpayable",
      "type": "function"
    },
    {
      "constant": true,
      "inputs": [
        {
          "name": "account",
          "type": "address"
        }
      ],
      "name": "isOperator",
      "outputs": [
        {
          "name": "",
          "type": "bool"
        }
      ],
      "payable": false,
      "stateMutability": "view",
      "type": "function"
    },
    {
      "constant": true,
      "inputs": [
        {
          "name": "owner",
          "type": "address"
        }
      ],
      "name": "balanceOf",
      "outputs": [
        {
          "name": "",
          "type": "uint256"
        }
      ],
      "payable": false,
      "stateMutability": "view",
      "type": "function"
    },
    {
      "constant": false,
      "inputs": [],
      "name": "renounceOwnership",
      "outputs": [],
      "payable": false,
      "stateMutability": "nonpayable",
      "type": "function"
    },
    {
      "constant": false,
      "inputs": [
        {
          "name": "from",
          "type": "address"
        },
        {
          "name": "value",
          "type": "uint256"
        }
      ],
      "name": "burnFrom",
      "outputs": [],
      "payable": false,
      "stateMutability": "nonpayable",
      "type": "function"
    },
    {
      "constant": false,
      "inputs": [
        {
          "name": "tokenAddress",
          "type": "address"
        },
        {
          "name": "tokenAmount",
          "type": "uint256"
        }
      ],
      "name": "recoverERC20",
      "outputs": [],
      "payable": false,
      "stateMutability": "nonpayable",
      "type": "function"
    },
    {
      "constant": true,
      "inputs": [],
      "name": "owner",
      "outputs": [
        {
          "name": "",
          "type": "address"
        }
      ],
      "payable": false,
      "stateMutability": "view",
      "type": "function"
    },
    {
      "constant": true,
      "inputs": [],
      "name": "isOwner",
      "outputs": [
        {
          "name": "",
          "type": "bool"
        }
      ],
      "payable": false,
      "stateMutability": "view",
      "type": "function"
    },
    {
      "constant": true,
      "inputs": [],
      "name": "symbol",
      "outputs": [
        {
          "name": "",
          "type": "string"
        }
      ],
      "payable": false,
      "stateMutability": "view",
      "type": "function"
    },
    {
      "constant": false,
      "inputs": [
        {
          "name": "account",
          "type": "address"
        }
      ],
      "name": "addMinter",
      "outputs": [],
      "payable": false,
      "stateMutability": "nonpayable",
      "type": "function"
    },
    {
      "constant": false,
      "inputs": [],
      "name": "renounceMinter",
      "outputs": [],
      "payable": false,
      "stateMutability": "nonpayable",
      "type": "function"
    },
    {
      "constant": false,
      "inputs": [
        {
          "name": "account",
          "type": "address"
        }
      ],
      "name": "addOperator",
      "outputs": [],
      "payable": false,
      "stateMutability": "nonpayable",
      "type": "function"
    },
    {
      "constant": false,
      "inputs": [
        {
          "name": "spender",
          "type": "address"
        },
        {
          "name": "subtractedValue",
          "type": "uint256"
        }
      ],
      "name": "decreaseAllowance",
      "outputs": [
        {
          "name": "",
          "type": "bool"
        }
      ],
      "payable": false,
      "stateMutability": "nonpayable",
      "type": "function"
    },
    {
      "constant": true,
      "inputs": [
        {
          "name": "account",
          "type": "address"
        }
      ],
      "name": "isMinter",
      "outputs": [
        {
          "name": "",
          "type": "bool"
        }
      ],
      "payable": false,
      "stateMutability": "view",
      "type": "function"
    },
    {
      "constant": true,
      "inputs": [
        {
          "name": "owner",
          "type": "address"
        },
        {
          "name": "spender",
          "type": "address"
        }
      ],
      "name": "allowance",
      "outputs": [
        {
          "name": "",
          "type": "uint256"
        }
      ],
      "payable": false,
      "stateMutability": "view",
      "type": "function"
    },
    {
      "constant": false,
      "inputs": [
        {
          "name": "newOwner",
          "type": "address"
        }
      ],
      "name": "transferOwnership",
      "outputs": [],
      "payable": false,
      "stateMutability": "nonpayable",
      "type": "function"
    },
    {
      "inputs": [
        {
          "name": "name",
          "type": "string"
        },
        {
          "name": "symbol",
          "type": "string"
        },
        {
          "name": "decimals",
          "type": "uint8"
        },
        {
          "name": "cap",
          "type": "uint256"
        },
        {
          "name": "initialSupply",
          "type": "uint256"
        }
      ],
      "payable": false,
      "stateMutability": "nonpayable",
      "type": "constructor"
    },
    {
      "anonymous": false,
      "inputs": [],
      "name": "MintFinished",
      "type": "event"
    },
    {
      "anonymous": false,
      "inputs": [],
      "name": "TransferEnabled",
      "type": "event"
    },
    {
      "anonymous": false,
      "inputs": [
        {
          "indexed": true,
          "name": "previousOwner",
          "type": "address"
        },
        {
          "indexed": true,
          "name": "newOwner",
          "type": "address"
        }
      ],
      "name": "OwnershipTransferred",
      "type": "event"
    },
    {
      "anonymous": false,
      "inputs": [
        {
          "indexed": true,
          "name": "account",
          "type": "address"
        }
      ],
      "name": "OperatorAdded",
      "type": "event"
    },
    {
      "anonymous": false,
      "inputs": [
        {
          "indexed": true,
          "name": "account",
          "type": "address"
        }
      ],
      "name": "OperatorRemoved",
      "type": "event"
    },
    {
      "anonymous": false,
      "inputs": [
        {
          "indexed": true,
          "name": "account",
          "type": "address"
        }
      ],
      "name": "MinterAdded",
      "type": "event"
    },
    {
      "anonymous": false,
      "inputs": [
        {
          "indexed": true,
          "name": "account",
          "type": "address"
        }
      ],
      "name": "MinterRemoved",
      "type": "event"
    },
    {
      "anonymous": false,
      "inputs": [
        {
          "indexed": true,
          "name": "from",
          "type": "address"
        },
        {
          "indexed": true,
          "name": "to",
          "type": "address"
        },
        {
          "indexed": false,
          "name": "value",
          "type": "uint256"
        }
      ],
      "name": "Transfer",
      "type": "event"
    },
    {
      "anonymous": false,
      "inputs": [
        {
          "indexed": true,
          "name": "owner",
          "type": "address"
        },
        {
          "indexed": true,
          "name": "spender",
          "type": "address"
        },
        {
          "indexed": false,
          "name": "value",
          "type": "uint256"
        }
      ],
      "name": "Approval",
      "type": "event"
    },
    {
      "constant": true,
      "inputs": [],
      "name": "mintingFinished",
      "outputs": [
        {
          "name": "",
          "type": "bool"
        }
      ],
      "payable": false,
      "stateMutability": "view",
      "type": "function"
    },
    {
      "constant": true,
      "inputs": [],
      "name": "transferEnabled",
      "outputs": [
        {
          "name": "",
          "type": "bool"
        }
      ],
      "payable": false,
      "stateMutability": "view",
      "type": "function"
    },
    {
      "constant": false,
      "inputs": [
        {
          "name": "to",
          "type": "address"
        },
        {
          "name": "value",
          "type": "uint256"
        }
      ],
      "name": "mint",
      "outputs": [
        {
          "name": "",
          "type": "bool"
        }
      ],
      "payable": false,
      "stateMutability": "nonpayable",
      "type": "function"
    },
    {
      "constant": false,
      "inputs": [
        {
          "name": "to",
          "type": "address"
        },
        {
          "name": "value",
          "type": "uint256"
        }
      ],
      "name": "transfer",
      "outputs": [
        {
          "name": "",
          "type": "bool"
        }
      ],
      "payable": false,
      "stateMutability": "nonpayable",
      "type": "function"
    },
    {
      "constant": false,
      "inputs": [
        {
          "name": "from",
          "type": "address"
        },
        {
          "name": "to",
          "type": "address"
        },
        {
          "name": "value",
          "type": "uint256"
        }
      ],
      "name": "transferFrom",
      "outputs": [
        {
          "name": "",
          "type": "bool"
        }
      ],
      "payable": false,
      "stateMutability": "nonpayable",
      "type": "function"
    },
    {
      "constant": false,
      "inputs": [],
      "name": "finishMinting",
      "outputs": [],
      "payable": false,
      "stateMutability": "nonpayable",
      "type": "function"
    },
    {
      "constant": false,
      "inputs": [],
      "name": "enableTransfer",
      "outputs": [],
      "payable": false,
      "stateMutability": "nonpayable",
      "type": "function"
    },
    {
      "constant": false,
      "inputs": [
        {
          "name": "account",
          "type": "address"
        }
      ],
      "name": "removeOperator",
      "outputs": [],
      "payable": false,
      "stateMutability": "nonpayable",
      "type": "function"
    },
    {
      "constant": false,
      "inputs": [
        {
          "name": "account",
          "type": "address"
        }
      ],
      "name": "removeMinter",
      "outputs": [],
      "payable": false,
      "stateMutability": "nonpayable",
      "type": "function"
    }
  ],
  "bytecode": "0x608060405260098054600160a01b61ffff02191690553480156200002257600080fd5b506040516200185038038062001850833981018060405260a08110156200004857600080fd5b8101908080516401000000008111156200006157600080fd5b820160208101848111156200007557600080fd5b81516401000000008111828201871017156200009057600080fd5b50509291906020018051640100000000811115620000ad57600080fd5b82016020810184811115620000c157600080fd5b8151640100000000811182820187101715620000dc57600080fd5b50506020808301516040840151606090940151875193965090945091839187918791879162000112916000919086019062000464565b5081516200012890600190602085019062000464565b506002805460ff191660ff929092169190911790555062000152905033620001f4602090811b901c565b600081116200016057600080fd5b600755620001753362000246602090811b901c565b600980546001600160a01b0319163317908190556040516001600160a01b0391909116906000907f8be0079c531659141344cd1fd0a4f28419497f9722a3daafe3b4186f6b6457e0908290a38015620001e957620001e9620001dc6200029860201b60201c565b82620002a860201b60201c565b505050505062000506565b6200020f816006620002fb60201b620011f81790919060201c565b6040516001600160a01b038216907f6ae172837ea30b801fbfcdd4108aa1d5bf8ff775444fd70256b44e6bf3dfc3f690600090a250565b62000261816008620002fb60201b620011f81790919060201c565b6040516001600160a01b038216907fac6fa858e9350a46cec16539926e0fde25b7629f84b5a72bffaae4df888ae86d90600090a250565b6009546001600160a01b03165b90565b600754620002d482620002c06200035160201b60201c565b6200035760201b62000dcb1790919060201c565b1115620002e057600080fd5b620002f782826200037160201b620012441760201c565b5050565b6001600160a01b0381166200030f57600080fd5b6200032182826200042e60201b60201c565b156200032c57600080fd5b6001600160a01b0316600090815260209190915260409020805460ff19166001179055565b60055490565b6000828201838110156200036a57600080fd5b9392505050565b6001600160a01b0382166200038557600080fd5b620003a1816005546200035760201b62000dcb1790919060201c565b6005556001600160a01b038216600090815260036020908152604090912054620003d691839062000dcb62000357821b17901c565b6001600160a01b03831660008181526003602090815260408083209490945583518581529351929391927fddf252ad1be2c89b69c2b068fc378daa952ba7f163c4a11628f55a4df523b3ef9281900390910190a35050565b60006001600160a01b0382166200044457600080fd5b506001600160a01b03166000908152602091909152604090205460ff1690565b828054600181600116156101000203166002900490600052602060002090601f016020900481019282601f10620004a757805160ff1916838001178555620004d7565b82800160010185558215620004d7579182015b82811115620004d7578251825591602001919060010190620004ba565b50620004e5929150620004e9565b5090565b620002a591905b80821115620004e55760008155600101620004f0565b61133a80620005166000396000f3fe608060405234801561001057600080fd5b50600436106101f05760003560e01c806379cc67901161010f5780639870d7fe116100a2578063ac8a584a11610071578063ac8a584a14610597578063dd62ed3e146105bd578063f1b50c1d146105eb578063f2fde38b146105f3576101f0565b80639870d7fe146104f3578063a457c2d714610519578063a9059cbb14610545578063aa271e1a14610571576101f0565b80638f32d59b116100de5780638f32d59b146104b557806395d89b41146104bd578063983b2d56146104c557806398650275146104eb576101f0565b806379cc6790146104315780637d64bcb41461045d5780638980f11f146104655780638da5cb5b14610491576101f0565b8063355274ea116101875780634cd412d5116101565780634cd412d5146103d55780636d70f7ae146103dd57806370a0823114610403578063715018a614610429576101f0565b8063355274ea14610358578063395093511461036057806340c10f191461038c57806342966c68146103b8576101f0565b806323b872dd116101c357806323b872dd146102d45780632ab6f8db1461030a5780633092afd514610314578063313ce5671461033a576101f0565b806305d2035b146101f557806306fdde0314610211578063095ea7b31461028e57806318160ddd146102ba575b600080fd5b6101fd610619565b604080519115158252519081900360200190f35b610219610629565b6040805160208082528351818301528351919283929083019185019080838360005b8381101561025357818101518382015260200161023b565b50505050905090810190601f1680156102805780820380516001836020036101000a031916815260200191505b509250505060405180910390f35b6101fd600480360360408110156102a457600080fd5b506001600160a01b0381351690602001356106bf565b6102c2610729565b60408051918252519081900360200190f35b6101fd600480360360608110156102ea57600080fd5b506001600160a01b0381358116916020810135909116906040013561072f565b61031261076d565b005b6103126004803603602081101561032a57600080fd5b50356001600160a01b0316610778565b610342610795565b6040805160ff9092168252519081900360200190f35b6102c261079e565b6101fd6004803603604081101561037657600080fd5b506001600160a01b0381351690602001356107a4565b6101fd600480360360408110156103a257600080fd5b506001600160a01b038135169060200135610840565b610312600480360360208110156103ce57600080fd5b503561086b565b6101fd610875565b6101fd600480360360208110156103f357600080fd5b50356001600160a01b0316610885565b6102c26004803603602081101561041957600080fd5b50356001600160a01b031661089e565b6103126108b9565b6103126004803603604081101561044757600080fd5b506001600160a01b038135169060200135610914565b610312610922565b6103126004803603604081101561047b57600080fd5b506001600160a01b0381351690602001356109d4565b610499610a7c565b604080516001600160a01b039092168252519081900360200190f35b6101fd610a8b565b610219610a9c565b610312600480360360208110156104db57600080fd5b50356001600160a01b0316610afc565b610312610b17565b6103126004803603602081101561050957600080fd5b50356001600160a01b0316610b20565b6101fd6004803603604081101561052f57600080fd5b506001600160a01b038135169060200135610b3b565b6101fd6004803603604081101561055b57600080fd5b506001600160a01b038135169060200135610b84565b6101fd6004803603602081101561058757600080fd5b50356001600160a01b0316610bc0565b610312600480360360208110156105ad57600080fd5b50356001600160a01b0316610bd3565b6102c2600480360360408110156105d357600080fd5b506001600160a01b0381358116916020013516610bed565b610312610c18565b6103126004803603602081101561060957600080fd5b50356001600160a01b0316610c6a565b600954600160a01b900460ff1690565b60008054604080516020601f60026000196101006001881615020190951694909404938401819004810282018101909252828152606093909290918301828280156106b55780601f1061068a576101008083540402835291602001916106b5565b820191906000526020600020905b81548152906001019060200180831161069857829003601f168201915b5050505050905090565b60006001600160a01b0383166106d457600080fd5b3360008181526004602090815260408083206001600160a01b03881680855290835292819020869055805186815290519293926000805160206112ef833981519152929181900390910190a350600192915050565b60055490565b6009546000908490600160a81b900460ff1680610750575061075081610885565b61075957600080fd5b610764858585610c84565b95945050505050565b61077633610d3b565b565b610780610a8b565b61078957600080fd5b61079281610d83565b50565b60025460ff1690565b60075490565b60006001600160a01b0383166107b957600080fd5b3360009081526004602090815260408083206001600160a01b03871684529091529020546107ed908363ffffffff610dcb16565b3360008181526004602090815260408083206001600160a01b0389168085529083529281902085905580519485525191936000805160206112ef833981519152929081900390910190a350600192915050565b600954600090600160a01b900460ff161561085a57600080fd5b6108648383610ddd565b9392505050565b6107923382610e04565b600954600160a81b900460ff1690565b600061089860088363ffffffff610ead16565b92915050565b6001600160a01b031660009081526003602052604090205490565b6108c1610a8b565b6108ca57600080fd5b6009546040516000916001600160a01b0316907f8be0079c531659141344cd1fd0a4f28419497f9722a3daafe3b4186f6b6457e0908390a3600980546001600160a01b0319169055565b61091e8282610ee2565b5050565b61092a610a8b565b61093357600080fd5b600954600160a01b900460ff161561094a57600080fd5b60098054600160a81b60ff021974ff000000000000000000000000000000000000000019909116600160a01b1716600160a81b1790556040517fae5184fba832cb2b1f702aca6117b8d265eaf03ad33eb133f19dde0f5920fa0890600090a16040517f75fce015c314a132947a3e42f6ab79ab8e05397dabf35b4d742dea228bbadc2d90600090a1565b6109dc610a8b565b6109e557600080fd5b816001600160a01b031663a9059cbb6109fc610a7c565b836040518363ffffffff1660e01b815260040180836001600160a01b03166001600160a01b0316815260200182815260200192505050602060405180830381600087803b158015610a4c57600080fd5b505af1158015610a60573d6000803e3d6000fd5b505050506040513d6020811015610a7657600080fd5b50505050565b6009546001600160a01b031690565b6009546001600160a01b0316331490565b60018054604080516020601f600260001961010087891615020190951694909404938401819004810282018101909252828152606093909290918301828280156106b55780601f1061068a576101008083540402835291602001916106b5565b610b0533610bc0565b610b0e57600080fd5b61079281610f92565b61077633610d83565b610b2933610885565b610b3257600080fd5b61079281610fda565b60006001600160a01b038316610b5057600080fd5b3360009081526004602090815260408083206001600160a01b03871684529091529020546107ed908363ffffffff61102216565b6009546000903390600160a81b900460ff1680610ba55750610ba581610885565b610bae57600080fd5b610bb88484611037565b949350505050565b600061089860068363ffffffff610ead16565b610bdb610a8b565b610be457600080fd5b61079281610d3b565b6001600160a01b03918216600090815260046020908152604080832093909416825291909152205490565b610c20610a8b565b610c2957600080fd5b60098054600160a81b60ff021916600160a81b1790556040517f75fce015c314a132947a3e42f6ab79ab8e05397dabf35b4d742dea228bbadc2d90600090a1565b610c72610a8b565b610c7b57600080fd5b61079281611044565b6001600160a01b0383166000908152600460209081526040808320338452909152812054610cb8908363ffffffff61102216565b6001600160a01b0385166000908152600460209081526040808320338452909152902055610ce78484846110b3565b6001600160a01b0384166000818152600460209081526040808320338085529083529281902054815190815290519293926000805160206112ef833981519152929181900390910190a35060019392505050565b610d4c60088263ffffffff61118016565b6040516001600160a01b038216907f80c0b871b97b595b16a7741c1b06fed0c6f6f558639f18ccbce50724325dc40d90600090a250565b610d9460068263ffffffff61118016565b6040516001600160a01b038216907fe94479a9f7e1952cc78f2d6baab678adc1b772d936c6583def489e524cb6669290600090a250565b60008282018381101561086457600080fd5b6000610de833610bc0565b610df157600080fd5b610dfb83836111c8565b50600192915050565b6001600160a01b038216610e1757600080fd5b600554610e2a908263ffffffff61102216565b6005556001600160a01b038216600090815260036020526040902054610e56908263ffffffff61102216565b6001600160a01b0383166000818152600360209081526040808320949094558351858152935191937fddf252ad1be2c89b69c2b068fc378daa952ba7f163c4a11628f55a4df523b3ef929081900390910190a35050565b60006001600160a01b038216610ec257600080fd5b506001600160a01b03166000908152602091909152604090205460ff1690565b6001600160a01b0382166000908152600460209081526040808320338452909152902054610f16908263ffffffff61102216565b6001600160a01b0383166000908152600460209081526040808320338452909152902055610f448282610e04565b6001600160a01b0382166000818152600460209081526040808320338085529083529281902054815190815290519293926000805160206112ef833981519152929181900390910190a35050565b610fa360068263ffffffff6111f816565b6040516001600160a01b038216907f6ae172837ea30b801fbfcdd4108aa1d5bf8ff775444fd70256b44e6bf3dfc3f690600090a250565b610feb60088263ffffffff6111f816565b6040516001600160a01b038216907fac6fa858e9350a46cec16539926e0fde25b7629f84b5a72bffaae4df888ae86d90600090a250565b60008282111561103157600080fd5b50900390565b6000610dfb3384846110b3565b6001600160a01b03811661105757600080fd5b6009546040516001600160a01b038084169216907f8be0079c531659141344cd1fd0a4f28419497f9722a3daafe3b4186f6b6457e090600090a3600980546001600160a01b0319166001600160a01b0392909216919091179055565b6001600160a01b0382166110c657600080fd5b6001600160a01b0383166000908152600360205260409020546110ef908263ffffffff61102216565b6001600160a01b038085166000908152600360205260408082209390935590841681522054611124908263ffffffff610dcb16565b6001600160a01b0380841660008181526003602090815260409182902094909455805185815290519193928716927fddf252ad1be2c89b69c2b068fc378daa952ba7f163c4a11628f55a4df523b3ef92918290030190a3505050565b6001600160a01b03811661119357600080fd5b61119d8282610ead565b6111a657600080fd5b6001600160a01b0316600090815260209190915260409020805460ff19169055565b6007546111e3826111d7610729565b9063ffffffff610dcb16565b11156111ee57600080fd5b61091e8282611244565b6001600160a01b03811661120b57600080fd5b6112158282610ead565b1561121f57600080fd5b6001600160a01b0316600090815260209190915260409020805460ff19166001179055565b6001600160a01b03821661125757600080fd5b60055461126a908263ffffffff610dcb16565b6005556001600160a01b038216600090815260036020526040902054611296908263ffffffff610dcb16565b6001600160a01b03831660008181526003602090815260408083209490945583518581529351929391927fddf252ad1be2c89b69c2b068fc378daa952ba7f163c4a11628f55a4df523b3ef9281900390910190a3505056fe8c5be1e5ebec7d5bd14f71427d1e84f3dd0314c0f7b2291e5b200ac8c7c3b925a165627a7a72305820a2ef906395d2a77e56d784f249976644ff17585060bdcd0a4e9d93fdde2fd9610029",
  "source": "pragma solidity ^0.5.6;\n\nimport \"openzeppelin-solidity/contracts/token/ERC20/ERC20Detailed.sol\";\nimport \"openzeppelin-solidity/contracts/token/ERC20/ERC20Capped.sol\";\nimport \"openzeppelin-solidity/contracts/token/ERC20/ERC20Burnable.sol\";\nimport \"eth-token-recover/contracts/TokenRecover.sol\";\nimport \"../../access/roles/OperatorRole.sol\";\n\n/**\n * @title BaseERC20Token\n * @author Vittorio Minacori (https://github.com/vittominacori)\n * @dev Implementation of the BaseERC20Token\n */\ncontract BaseERC20Token is ERC20Detailed, ERC20Capped, ERC20Burnable, OperatorRole, TokenRecover {\n\n    event MintFinished();\n    event TransferEnabled();\n\n    // indicates if minting is finished\n    bool private _mintingFinished = false;\n\n    // indicates if transfer is enabled\n    bool private _transferEnabled = false;\n\n    /**\n     * @dev Tokens can be minted only before minting finished\n     */\n    modifier canMint() {\n        require(!_mintingFinished);\n        _;\n    }\n\n    /**\n     * @dev Tokens can be moved only after if transfer enabled or if you are an approved operator\n     */\n    modifier canTransfer(address from) {\n        require(_transferEnabled || isOperator(from));\n        _;\n    }\n\n    /**\n     * @param name Name of the token\n     * @param symbol A symbol to be used as ticker\n     * @param decimals Number of decimals. All the operations are done using the smallest and indivisible token unit\n     * @param cap Maximum number of tokens mintable\n     * @param initialSupply Initial token supply\n     */\n    constructor(\n        string memory name,\n        string memory symbol,\n        uint8 decimals,\n        uint256 cap,\n        uint256 initialSupply\n    )\n        public\n        ERC20Detailed(name, symbol, decimals)\n        ERC20Capped(cap)\n    {\n        if (initialSupply > 0) {\n            _mint(owner(), initialSupply);\n        }\n    }\n\n    /**\n     * @return if minting is finished or not\n     */\n    function mintingFinished() public view returns (bool) {\n        return _mintingFinished;\n    }\n\n    /**\n     * @return if transfer is enabled or not\n     */\n    function transferEnabled() public view returns (bool) {\n        return _transferEnabled;\n    }\n\n    function mint(address to, uint256 value) public canMint returns (bool) {\n        return super.mint(to, value);\n    }\n\n    function transfer(address to, uint256 value) public canTransfer(msg.sender) returns (bool) {\n        return super.transfer(to, value);\n    }\n\n    function transferFrom(address from, address to, uint256 value) public canTransfer(from) returns (bool) {\n        return super.transferFrom(from, to, value);\n    }\n\n    /**\n     * @dev Function to stop minting new tokens\n     */\n    function finishMinting() public onlyOwner canMint {\n        _mintingFinished = true;\n        _transferEnabled = true;\n\n        emit MintFinished();\n        emit TransferEnabled();\n    }\n\n    /**\n   * @dev Function to enable transfers.\n   */\n    function enableTransfer() public onlyOwner {\n        _transferEnabled = true;\n\n        emit TransferEnabled();\n    }\n\n    /**\n     * @dev remove the `operator` role from address\n     * @param account Address you want to remove role\n     */\n    function removeOperator(address account) public onlyOwner {\n        _removeOperator(account);\n    }\n\n    /**\n     * @dev remove the `minter` role from address\n     * @param account Address you want to remove role\n     */\n    function removeMinter(address account) public onlyOwner {\n        _removeMinter(account);\n    }\n}\n",
  "sourcePath": "ico-maker/contracts/token/ERC20/BaseERC20Token.sol",
  "compiler": {
    "name": "solc",
    "version": "0.5.6+commit.b259423e.Emscripten.clang"
  },
  "schemaVersion": "3.0.6",
  "updatedAt": "2019-04-06T03:09:58.495Z",
  "devdoc": {
    "author": "Vittorio Minacori (https://github.com/vittominacori)",
    "details": "Implementation of the BaseERC20Token",
    "methods": {
      "allowance(address,address)": {
        "details": "Function to check the amount of tokens that an owner allowed to a spender.",
        "params": {
          "owner": "address The address which owns the funds.",
          "spender": "address The address which will spend the funds."
        },
        "return": "A uint256 specifying the amount of tokens still available for the spender."
      },
      "approve(address,uint256)": {
        "details": "Approve the passed address to spend the specified amount of tokens on behalf of msg.sender. Beware that changing an allowance with this method brings the risk that someone may use both the old and the new allowance by unfortunate transaction ordering. One possible solution to mitigate this race condition is to first reduce the spender's allowance to 0 and set the desired value afterwards: https://github.com/ethereum/EIPs/issues/20#issuecomment-263524729",
        "params": {
          "spender": "The address which will spend the funds.",
          "value": "The amount of tokens to be spent."
        }
      },
      "balanceOf(address)": {
        "details": "Gets the balance of the specified address.",
        "params": {
          "owner": "The address to query the balance of."
        },
        "return": "An uint256 representing the amount owned by the passed address."
      },
      "burn(uint256)": {
        "details": "Burns a specific amount of tokens.",
        "params": {
          "value": "The amount of token to be burned."
        }
      },
      "burnFrom(address,uint256)": {
        "details": "Burns a specific amount of tokens from the target address and decrements allowance",
        "params": {
          "from": "address The address which you want to send tokens from",
          "value": "uint256 The amount of token to be burned"
        }
      },
      "cap()": {
        "return": "the cap for the token minting."
      },
      "constructor": {
        "params": {
          "cap": "Maximum number of tokens mintable",
          "decimals": "Number of decimals. All the operations are done using the smallest and indivisible token unit",
          "initialSupply": "Initial token supply",
          "name": "Name of the token",
          "symbol": "A symbol to be used as ticker"
        }
      },
      "decimals()": {
        "return": "the number of decimals of the token."
      },
      "decreaseAllowance(address,uint256)": {
        "details": "Decrease the amount of tokens that an owner allowed to a spender. approve should be called when allowed_[_spender] == 0. To decrement allowed value is better to use this function to avoid 2 calls (and wait until the first transaction is mined) From MonolithDAO Token.sol Emits an Approval event.",
        "params": {
          "spender": "The address which will spend the funds.",
          "subtractedValue": "The amount of tokens to decrease the allowance by."
        }
      },
      "enableTransfer()": {
        "details": "Function to enable transfers."
      },
      "finishMinting()": {
        "details": "Function to stop minting new tokens"
      },
      "increaseAllowance(address,uint256)": {
        "details": "Increase the amount of tokens that an owner allowed to a spender. approve should be called when allowed_[_spender] == 0. To increment allowed value is better to use this function to avoid 2 calls (and wait until the first transaction is mined) From MonolithDAO Token.sol Emits an Approval event.",
        "params": {
          "addedValue": "The amount of tokens to increase the allowance by.",
          "spender": "The address which will spend the funds."
        }
      },
      "isOwner()": {
        "return": "true if `msg.sender` is the owner of the contract."
      },
      "mintingFinished()": {
        "return": "if minting is finished or not"
      },
      "name()": {
        "return": "the name of the token."
      },
      "owner()": {
        "return": "the address of the owner."
      },
      "recoverERC20(address,uint256)": {
        "details": "Remember that only owner can call so be careful when use on contracts generated from other contracts.",
        "params": {
          "tokenAddress": "The token contract address",
          "tokenAmount": "Number of tokens to be sent"
        }
      },
      "removeMinter(address)": {
        "details": "remove the `minter` role from address",
        "params": {
          "account": "Address you want to remove role"
        }
      },
      "removeOperator(address)": {
        "details": "remove the `operator` role from address",
        "params": {
          "account": "Address you want to remove role"
        }
      },
      "renounceOwnership()": {
        "details": "Allows the current owner to relinquish control of the contract."
      },
      "symbol()": {
        "return": "the symbol of the token."
      },
      "totalSupply()": {
        "details": "Total number of tokens in existence"
      },
      "transferEnabled()": {
        "return": "if transfer is enabled or not"
      },
      "transferOwnership(address)": {
        "details": "Allows the current owner to transfer control of the contract to a newOwner.",
        "params": {
          "newOwner": "The address to transfer ownership to."
        }
      }
    },
    "title": "BaseERC20Token"
  },
  "userdoc": {
    "methods": {
      "renounceOwnership()": {
        "notice": "Renouncing to ownership will leave the contract without an owner. It will not be possible to call the functions with the `onlyOwner` modifier anymore."
      }
    }
  }
}